:100000000C9463000C948B000C948B000C948B006C
:100010000C948B000C948B000C948B000C94200699
:100020000C948B000C948B000C948B000C948B0024
:100030000C948B000C948B000C948B000C948B0014
:100040000C94D6050C948B000C94A2060C947C06A0
:100050000C948B000C948B000C948B000C948B00F4
:100060000C948B000C948B000000000024002700EF
:100070002A000000000023002600290000000008DC
:10008000000201000003040700000000000000005F
:10009000010204081020408001020408102001021F
:1000A0000408102000000000250028002B00040494
:1000B0000404040404040202020202020303030310
:1000C00003030200D40611241FBECFEFD8E0DEBF29
:1000D000CDBF14E0A0E0B1E0E4E9F6E102C0059094
:1000E0000D92A639B107D9F725E0A6E9B4E001C021
:1000F0001D92AC3BB207E1F710E0C3E6D0E004C0CC
:100100002197FE010E94020AC236D107C9F70E9458
:1001100061070C94480B0C94000096E0899FD00175
:100120001124A35BBA4F90967C936E935F9791E0F6
:1001300091969C939197E091BA05F091BB059091AF
:10014000B905992339F0309751F0811108C0809199
:1001500069050994309719F05C968C91FACF08954F
:10016000CF92DF92EF92FF920F931F9396E0899FB9
:10017000F0011124E35BFA4F11A2278D30A1213049
:10018000310551F178F02230310509F451C02330A6
:10019000310509F452C01F910F91FF90EF90DF904D
:1001A000CF9008956623B9F361E070E00E948D005E
:1001B0002FB7F89480919B0490919C04A0919D048A
:1001C000B0919E042FBF8093A5059093A605A093A0
:1001D000A705B093A805DFCF9FB7F894C0909B0404
:1001E000D0909C04E0909D04F0909E049FBF0091ED
:1001F000A5051091A6052091A7053091A805C01A64
:10020000D10AE20AF30A0091B7051091B80530E06F
:1002100020E00C151D052E053F0550F462E070E04E
:100220001F910F91FF90EF90DF90CF900C948D0075
:100230006111B1CF63E070E0F3CF70E060E0F0CF28
:10024000833081F028F4813099F08230A9F008954C
:100250008730A9F08830C9F08430B1F480918000F3
:100260008F7D03C0809180008F77809380000895F8
:1002700084B58F7784BD089584B58F7DFBCF809141
:10028000B0008F778093B00008958091B0008F7D8B
:10029000F9CFCF93DF93282F30E0F901E458FF4FD7
:1002A0008491F901E057FF4FD491F901E255FF4FD6
:1002B000C491CC23A1F081110E942001EC2FF0E029
:1002C000EE0FFF1FEE58FF4FA591B491EC91ED2377
:1002D00081E090E009F480E0DF91CF91089580E023
:1002E00090E0FACF1F93CF93DF93282F30E0F901EE
:1002F000E458FF4F8491F901E057FF4FD491F90181
:10030000E255FF4FC491CC23A9F0162F81110E9412
:100310002001EC2FF0E0EE0FFF1FEC55FF4FA591F1
:10032000B4918FB7F894EC91111108C0D095DE23E9
:10033000DC938FBFDF91CF911F910895DE2BF8CF13
:10034000CF93DF9390E0FC01E057FF4F249182555B
:100350009F4FFC0184918823C9F090E0880F991F7A
:10036000FC01E859FF4FA591B491FC01EC55FF4FFA
:10037000C591D49161110DC09FB7F8948C912095CF
:1003800082238C938881282328839FBFDF91CF917C
:100390000895623051F49FB7F8943C91822F809574
:1003A00083238C93E8812E2BEFCF8FB7F894EC91B9
:1003B0002E2B2C938FBFEACF4F925F926F927F923A
:1003C0008F929F92AF92BF92CF92DF92EF92FF9265
:1003D0000F931F93CF93DF9300D000D01F92CDB720
:1003E000DEB78C012A013B01809100018D30C9F0FC
:1003F0008F3F09F47FC00F900F900F900F900F90D8
:10040000DF91CF911F910F91FF90EF90DF90CF90F0
:10041000BF90AF909F908F907F906F905F904F9024
:100420000895E2ECF0E084918D8387FDE4CF61E0F4
:100430008DE00E94A0018D81882321F09D81923062
:1004400009F05CC14801B12CA12C60E072E18AE79F
:1004500090E0A50198010E94C40929833A834B8347
:100460005C8369017A0181E0C81AD108E108F108CA
:100470009FEFC916D104E104F10409F00CF413C193
:1004800060E472E48FE090E0A50198010E94C40945
:1004900069017A0181E0C81AD108E108F1089D815B
:1004A000923009F098C08FEFC816D104E104F1042E
:1004B00009F00CF4DDC160E970ED83E090E0A50186
:1004C00098010E94C40969017A0191E0C91AD10812
:1004D000E108F1088FEFC816D104E104F10411F02E
:1004E0000CF0A3C183E09091B100987F892B809399
:1004F000B100E1C08DE080930001E2ECF0E0949166
:100500009D839F3F09F477CF913029F158F09230C5
:1005100009F43FC08D8187FD6ECF61E08DE00E94C0
:10052000A0018CCF14BC15BC84B5826084BD85B598
:10053000816085BDEBEBF0E0E491F0E0EE0FFF1F92
:10054000EC55FF4F85919491EDE9F0E0E491E09353
:10055000A3041D826CCF10928000109281008091C4
:100560008100886080938100809181008160809308
:100570008100EBEBF0E0E491F0E0EE0FFF1FEC55B3
:10058000FF4F85919491EDE9F0E0E491E093A204AE
:100590004ECF1092B0001092B1008091B0008260F6
:1005A0008093B0008091B10081608093B100EBEB4B
:1005B000F0E0E491F0E0EE0FFF1FEC55FF4F859166
:1005C00094919093A1048093A004EDE9F0E0E4916C
:1005D000E0939F042CCF9FEFC916D104E104F104EE
:1005E00009F00CF489C068E478EE81E090E0A501A0
:1005F00098010E94C40969017A0181E0C81AD108F2
:10060000E108F1089D81992309F428C19FEFC916DB
:10061000D104E104F10409F00CF41EC162E17AE7AF
:1006200080E090E0A50194010E94C40969017A016B
:1006300081E0C81AD108E108F1089D81992309F4E5
:10064000EBC08FEFC816D104E104F10411F008F0FB
:10065000BFC086E048CF64E274EF80E090E0A5017F
:1006600094010E94C40969017A0181E0C81AD10885
:10067000E108F10885E09FEFC916D104E104F10417
:1006800009F008F430CF62E17AE780E090E0A5015C
:1006900094010E94C40969017A0191E0C91AD10844
:1006A000E108F108CECF81E09D8191111CCF95B575
:1006B000987F892B85BD2FEF3FEFA901411451048D
:1006C0006104710409F043C09D81913009F45EC05A
:1006D000923009F46DC091118ECEC7BC2093AC044A
:1006E0003093AD044093AE045093AF0480916E00FC
:1006F000826080936E007FCE82E0D6CFB12CA12C99
:1007000060E072E18AE790E0A50198010E94C409C7
:1007100069017A0181E0C81AD108E108F108C11421
:10072000D10491E0E906F10404F591E08D81813076
:1007300011F680918100887F892B809381002FEFB3
:100740003FEFA9014114510461047104F9F0D8018B
:10075000AA0FBB1FA30192010E94E30928EE33E018
:1007600040E050E00E94A209AFCF68E478EE81E05B
:1007700090E0A50198010E94C40969017A0181E015
:10078000C81AD108E108F10893E0D0CFD0928900CF
:10079000C09288002093A8043093A9044093AA042F
:1007A0005093AB0480916F00826080936F0023CEE2
:1007B000C092B3002093A4043093A5044093A604F0
:1007C0005093A7048091700082608093700013CED4
:1007D000C980DA80EB80FC809AE0F594E794D794A6
:1007E000C7949A95D1F791E0C91AD108E108F108A8
:1007F00087E079CEC980DA80EB80FC808AE0F594CE
:10080000E794D794C7948A95D1F791E0C91AD10893
:10081000E108F10885E04BCF8FEFC816D104E10461
:10082000F10409F038F784E042CF68E478EE81E023
:1008300090E0A50198010E94C40969017A0191E044
:10084000C91AD108E108F1088FEFC816D104E104F4
:10085000F10411F00CF0FFCE84E045CE8FEFC81606
:10086000D104E104F10411F00CF0D8CE83E01FCFE5
:1008700082E039CE3FB7F894809197049091980424
:10088000A0919904B0919A0426B5A89B05C02F3F6A
:1008900019F00196A11DB11D3FBFBA2FA92F982FA6
:1008A0008827BC01CD01620F711D811D911D42E0A1
:1008B000660F771F881F991F4A95D1F708958F9269
:1008C0009F92AF92BF92CF92DF92EF92FF926B0115
:1008D0007C010E943A044B015C01C114D104E10483
:1008E000F104B9F00E943A04681979098A099B0950
:1008F000683E73408105910580F321E0C21AD1085A
:10090000E108F10888EE880E83E0981EA11CB11C56
:10091000E4CFFF90EF90DF90CF90BF90AF909F908B
:100920008F900895862F642F0C94A001862F642F3A
:100930000C947201862F0C94490190910001891347
:100940000BC0E2ECF0E0E4919FEF90930001E13006
:1009500049F028F0E23061F060E00C9472011092EE
:100960006E00FACF90916F009D7F90936F00F4CF4F
:10097000909170009D7F9093700091E09093B000F3
:100980009091B100987F94609093B1001092B30061
:10099000E3CFAF92BF92CF92DF92EF92FF920F938D
:1009A0001F93CF93DF936C017B018B01040F151F05
:1009B000EB015E01AE18BF08C017D10759F069916D
:1009C000D601ED91FC910190F081E02DC6010995D1
:1009D000892B79F7C501DF91CF911F910F91FF907E
:1009E000EF90DF90CF90BF90AF900895FC01538DB2
:1009F000448D252F30E0842F90E0821B930B5417F9
:100A000010F0CF96089501970895FC01918D828D85
:100A1000981761F0A28DAE0FBF2FB11D5D968C911E
:100A2000928D9F5F9F73928F90E008958FEF9FEF5D
:100A30000895FC01918D828D981731F0828DE80F19
:100A4000F11D858D90E008958FEF9FEF0895FC01D3
:100A5000918D228D892F90E0805C9F4F821B9109A0
:100A60008F739927089580EB94E00E94270521E079
:100A7000892B09F420E0822F089580E090E0892BF3
:100A800029F00E94330581110C9400000895FC01A7
:100A9000A48DA80FB92FB11DA35ABF4F2C91848DDF
:100AA00090E001968F739927848FA689B7892C933C
:100AB000A089B1898C91837080648C93938D848D8F
:100AC000981306C00288F389E02D80818F7D808392
:100AD0000895EF92FF920F931F93CF93DF93EC0152
:100AE00081E0888F9B8D8C8D98131AC0E889F989D5
:100AF000808185FF15C09FB7F894EE89FF896083D8
:100B0000E889F98980818370806480839FBF81E058
:100B100090E0DF91CF911F910F91FF90EF9008959A
:100B2000F62E0B8D10E00F5F1F4F0F731127E02E75
:100B30008C8D8E110CC00FB607FCFACFE889F989AD
:100B4000808185FFF5CFCE010E944705F1CFEB8D67
:100B5000EC0FFD2FF11DE35AFF4FF0829FB7F89481
:100B60000B8FEA89FB8980818062CFCFCF93DF939F
:100B7000EC01888D8823B9F0AA89BB89E889F989B5
:100B80008C9185FD03C0808186FD0DC00FB607FCEA
:100B9000F7CF8C9185FFF2CF808185FFEDCFCE011D
:100BA0000E944705E9CFDF91CF9108951F920F92E0
:100BB0000FB60F9211242F933F938F939F93AF9370
:100BC000BF9380919B0490919C04A0919D04B0914F
:100BD0009E043091960423E0230F2D3758F501969B
:100BE000A11DB11D2093960480939B0490939C04B7
:100BF000A0939D04B0939E048091970490919804D3
:100C0000A0919904B0919A040196A11DB11D809301
:100C1000970490939804A0939904B0939A04BF9179
:100C2000AF919F918F913F912F910F900FBE0F9099
:100C30001F90189526E8230F0296A11DB11DD2CF53
:100C40001F920F920FB60F9211242F933F934F9341
:100C50005F936F937F938F939F93AF93BF93EF9324
:100C6000FF938091A4049091A504A091A604B09153
:100C7000A704892B8A2B8B2BD1F190919F04E091B3
:100C8000A004F091A1048081892780838091A4042D
:100C90009091A504A091A604B091A7041816190676
:100CA0001A061B069CF48091A4049091A504A091BF
:100CB000A604B091A7040197A109B1098093A404E7
:100CC0009093A504A093A604B093A704FF91EF917D
:100CD000BF91AF919F918F917F916F915F914F9154
:100CE0003F912F910F900FBE0F901F9018958091FC
:100CF00000010E949D04EACF1F920F920FB60F923F
:100D000011242F933F934F935F936F937F938F9310
:100D10009F93AF93BF93EF93FF9380EB94E00E9478
:100D20004705FF91EF91BF91AF919F918F917F9177
:100D30006F915F914F913F912F910F900FBE0F9048
:100D40001F9018951F920F920FB60F9211242F9398
:100D50008F939F93EF93FF93E091C004F091C104B0
:100D60008081E091C604F091C70482FD1BC0908190
:100D70008091C9048F5F8F732091CA04821741F05C
:100D8000E091C904F0E0E055FB4F958F8093C904D2
:100D9000FF91EF919F918F912F910F900FBE0F9028
:100DA0001F9018958081F4CF1092B3041092B20472
:100DB00088EE93E0A0E0B0E08093B4049093B50493
:100DC000A093B604B093B7048DE794E09093B10478
:100DD0008093B00485EC90E09093BD048093BC04B4
:100DE00084EC90E09093BF048093BE0480EC90E08C
:100DF0009093C1048093C00481EC90E09093C3046D
:100E00008093C20482EC90E09093C5048093C40464
:100E100086EC90E09093C7048093C6041092C904B6
:100E20001092CA041092CB041092CC0410924F0579
:100E30001092530510925205109254058FE894E0D9
:100E400090934E0580934D05E9E6F5E010821482FB
:100E500013821582369685E0E53AF807B9F785E002
:100E600091E09093B0058093AF0581E091E090937D
:100E7000B2058093B10584E08093B3058093B405F7
:100E800089E091E09093AE058093AD058AE090E013
:100E90009093B6058093B50584EF91E09093B805E3
:100EA0008093B7051092BB051092BA051092A90560
:100EB0001092AA051092AB051092AC051092B905DC
:100EC0000895789484B5826084BD84B5816084BDC2
:100ED00085B5826085BD85B5816085BD80916E00D8
:100EE000816080936E001092810080918100826009
:100EF0008093810080918100816080938100809146
:100F000080008160809380008091B1008460809334
:100F1000B1008091B00081608093B00080917A0030
:100F2000846080937A0080917A00826080937A0056
:100F300080917A00816080937A0080917A00806845
:100F400080937A001092C100E091C004F091C10436
:100F500082E08083E091BC04F091BD041082E091B6
:100F6000BE04F091BF0480E180831092C804E09138
:100F7000C404F091C50486E08083E091C204F0913E
:100F8000C304808180618083E091C204F091C30436
:100F9000808188608083E091C204F091C3048081E5
:100FA00080688083E091C204F091C30480818F7DCA
:100FB000808361E08DE00E94A001412C512C320120
:100FC000439448EEC42E43E0D42E50E0252E50E04A
:100FD000352E51E05093B9058FB7F89440919B049A
:100FE00050919C0460919D0470919E048FBF8091EC
:100FF000A9059091AA05A091AB05B091AC05481B3D
:10100000590B6A0B7B0B8091B5059091B605B0E04A
:10101000A0E084179507A607B70708F020C1C0E035
:101020008091B305C81760F4E091AF05F091B00569
:10103000EC0FF11D62E080810E94A001CF5FF0CF34
:10104000912C8091B405981608F05FC0092D10E02E
:10105000E091B105F091B205E00FF11F61E08081F0
:101060000E94A001E091B105F091B205E00FF11FDF
:1010700060E080810E947201D301C201092C04C08A
:10108000880F991FAA1FBB1F0A94D2F75C017C012D
:10109000E094F094812C8091B3058816F8F4C82D63
:1010A000D0E0E091AF05F091B005EC0FFD1F80811D
:1010B0000E9449012496CC0FDD1FC35BDA4F892BB8
:1010C00041F4888199818A299B2999838883839413
:1010D000E2CF888199818E219F21F7CFE091B105E0
:1010E000F091B205E00FF11F61E080810E94720172
:1010F0008091B1059091B205080F191F60E0F801C9
:1011000080810E94A00193949CCF0DE415E0E8013A
:101110008F8D98A1892B31F41C8E8FEF9FEF9E8FBE
:101120008D8F19A2269695E0C938D90789F7F12C39
:101130008091B305F81608F053C0E12CAF2CB12C08
:10114000AA0CBB1CF501EB5AFA4F5F012091B405C4
:10115000E21608F043C0F501608171810E2C02C0D7
:10116000769567950A94E2F7F29E900111242E0D70
:10117000311DEDE4F5E080E0458D568D24173507EF
:1011800009F4CAC08F5F36968A30B1F760FF24C079
:10119000EDE4F5E090E080E0448D411118C0E0916D
:1011A000AD05F091AE05E20FF31F408156E0589F68
:1011B000F001599FF00D1124E35BFA4F448F368FF5
:1011C000258F10A2178E61E00E94B00005C0019625
:1011D00036968A30910501F7E394B8CFF394A8CFFF
:1011E00080E0F80191A19111892F0A5F1F4FC0176C
:1011F000D107B9F79FB7F89440919B0450919C0494
:1012000060919D0470919E049FBF4093A9055093E7
:10121000AA056093AB057093AC05882301F180911A
:101220006E058823E1F080916C0590916D05019722
:10123000B1F4809169058033A9F0CFE5D4E005E4ED
:1012400014E08933F1F12114310409F4C2CE0E9473
:101250003305882309F4BDCE0E940000BACE109257
:10126000B905F1CFCFEAD2E009E111E069917991B6
:10127000C6010E948E094B01770FAA08BB08B50171
:10128000A401F801819191918F010E94DC01C501B7
:10129000B4010E944F0A26E636E646EA5FE30E9462
:1012A000B30A0E94170A072E000C880B990B0E94A4
:1012B0005F048DE00E949D04F4E0C534DF07B1F6C1
:1012C000C2CF69917991C6010E948E094B01770FB7
:1012D000AA08BB08B501A401F801819191918F0181
:1012E0000E94DC01C501B4010E944F0A26E636E6E1
:1012F00046EA5FE30E94B30A0E94170A072E000C19
:10130000880B990B0E945F048DE00E949D04F4E01D
:10131000C937DF07B1F697CF617056CF97FB072E1D
:1013200016F4009407D077FD09D00E94EE0907FC5F
:1013300005D03EF4909581959F4F089570956195E5
:101340007F4F0895A1E21A2EAA1BBB1BFD010DC001
:10135000AA1FBB1FEE1FFF1FA217B307E407F50765
:1013600020F0A21BB30BE40BF50B661F771F881F41
:10137000991F1A9469F760957095809590959B01D7
:10138000AC01BD01CF010895052E97FB1EF400941A
:101390000E94DB0957FD07D00E94A20907FC03D079
:1013A0004EF40C94DB0950954095309521953F4FB4
:1013B0004F4F5F4F089590958095709561957F4F41
:1013C0008F4F9F4F08950E94080AA59F900DB49FCC
:1013D000900DA49F800D911D11240895AA1BBB1B85
:1013E00051E107C0AA1FBB1FA617B70710F0A61B25
:1013F000B70B881F991F5A95A9F780959095BC0146
:10140000CD010895EE0FFF1F0590F491E02D099492
:10141000A29FB001B39FC001A39F700D811D112435
:10142000911DB29F700D811D1124911D08950E9480
:101430001E0A6894B1110C94AD0A08950E94920A94
:1014400088F09F5798F0B92F9927B751B0F0E1F085
:10145000660F771F881F991F1AF0BA95C9F714C035
:10146000B13091F00E94AC0AB1E008950C94AC0A3E
:10147000672F782F8827B85F39F0B93FCCF386956E
:1014800077956795B395D9F73EF4909580957095CB
:1014900061957F4F8F4F9F4F0895E89409C097FB48
:1014A0003EF490958095709561957F4F8F4F9F4F3B
:1014B0009923A9F0F92F96E9BB279395F69587957F
:1014C00077956795B795F111F8CFFAF4BB0F11F442
:1014D00060FF1BC06F5F7F4F8F4F9F4F16C08823E9
:1014E00011F096E911C0772321F09EE8872F762F1F
:1014F00005C0662371F096E8862F70E060E02AF060
:101500009A95660F771F881FDAF7880F969587954B
:1015100097F9089557FD9058440F551F59F05F3FB4
:1015200071F04795880F97FB991F61F09F3F79F005
:1015300087950895121613061406551FF2CF469587
:10154000F1DF08C0161617061806991FF1CF869509
:101550007105610508940895E894BB2766277727ED
:10156000CB0197F908950E94C60A0C94370B0E948C
:10157000290B38F00E94300B20F0952311F00C94C9
:10158000200B0C94260B11240C94AD0A0E948A0A9D
:1015900070F3959FC1F3950F50E0551F629FF001C6
:1015A000729FBB27F00DB11D639FAA27F00DB11DDF
:1015B000AA1F649F6627B00DA11D661F829F222768
:1015C000B00DA11D621F739FB00DA11D621F839FEF
:1015D000A00D611D221F749F3327A00D611D231FC5
:1015E000849F600D211D822F762F6A2F11249F5713
:1015F00050409AF0F1F088234AF0EE0FFF1FBB1F16
:10160000661F771F881F91505040A9F79E3F5105D4
:1016100080F00C94200B0C94AD0A5F3FE4F3983EED
:10162000D4F3869577956795B795F795E7959F5F7E
:10163000C1F7FE2B880F911D9695879597F9089510
:1016400097F99F6780E870E060E008959FEF80EC75
:10165000089500240A941616170618060906089518
:1016600000240A9412161306140605060895092E7E
:101670000394000C11F4882352F0BB0F40F4BF2BED
:1016800011F460FF04C06F5F7F4F8F4F9F4F08952D
:04169000F894FFCFFC
:10169400FF050403020908070631323341343536A5
:1016A40042373839432A3023444A018801B801B803
:1016B400010100B801EE010B020B0201000B024B09
:1016C40002EE01EE010100B8018801B80101004AEF
:1016D400018801B801B8010100B801EE010B020B49
:1016E4000201000B024B02EE01EE010100B8018879
:1016F40001B80101004A018801B801B8010100B82C
:10170400010B024B024B0201004B029302BA02BAD4
:1017140002010093024B029302B8010100B801EEEA
:10172400010B020B0201004B029302B8010100B845
:10173400010B02EE01EE0101000B02B801EE010102
:1017440000B801B801B801EE010B020B0201000B55
:10175400024B02EE01EE010100B8018801B801015B
:10176400004A018801B801B8010100B801EE010B7B
:10177400020B0201000B024B02EE01EE010100B864
:10178400018801B80101004A018801B801B80101CA
:1017940000B8010B024B024B0201004B029302BA48
:1017A40002BA02010093024B029302B8010100B88D
:1017B40001EE010B020B0201004B029302B801017E
:1017C40000B8010B02EE01EE0101000B02B801EEBC
:1017D400010100930201000100BA0201000100931B
:1017E40002930201001003010093024B0201000165
:1017F400004B02010001000B0201000100EE010B8D
:10180400020100EE010100B801930201000100BAD7
:1018140002010001009302930201001003010093EE
:10182400024B02010001004B02010001000B020106
:10183400000100EE010B020100EE010100B80108F5
:10184400000800040008000800080008000400085C
:101854000008000800080004000800080008000848
:10186400000400080008000800040008000800083C
:10187400000800040008000800080008000400082C
:10188400000800080008000400080008000800041C
:101894000008000800080008000400080008000808
:1018A40000080004000800080008000800080004FC
:1018B40000080008000800040008000800040008EC
:1018C40000040008000800080004000800080008DC
:1018D40000080004000400040008000800080004D4
:1018E40000080008000800080004000800080008B8
:1018F40000080004000800080008000400080008AC
:10190400000800080004000800080008000800049B
:101914000008000800080008000400080008000887
:10192400000400080008000800080004000800087B
:101934000008000800040008000800080008000867
:10194400000400080008000800040008000800045F
:10195400000800040008000800080004000800084B
:101964000008000800040004000400080004000447
:101974000008000400080008000800080008000827
:101984000008000800040004000800040004000823
:101994000004000800080008000800080002000411
:1019A40000080004000400080004000800080008FF
:1019B40000080008000800080008000400040008EB
:1019C40000040004000800040008000800080008DF
:1019D400000800020093024B0272019F012A02EEEA
:1019E4000126014A01EE01B80115014A01B80108B6
:1019F40000080004000400080008000400040008B3
:101A0400000800040004000200000000006905C989
:101A140004F604B605270505051905000000009223
:061A24000496049A040080
:00000001FF
